{
  "contractName": "ViewlyMainSale",
  "abi": [
    {
      "constant": true,
      "inputs": [],
      "name": "endBlock",
      "outputs": [
        {
          "name": "",
          "type": "uint256"
        }
      ],
      "payable": false,
      "stateMutability": "view",
      "type": "function"
    },
    {
      "constant": true,
      "inputs": [],
      "name": "beneficiary",
      "outputs": [
        {
          "name": "",
          "type": "address"
        }
      ],
      "payable": false,
      "stateMutability": "view",
      "type": "function"
    },
    {
      "constant": true,
      "inputs": [
        {
          "name": "",
          "type": "address"
        }
      ],
      "name": "contributions",
      "outputs": [
        {
          "name": "",
          "type": "uint256"
        }
      ],
      "payable": false,
      "stateMutability": "view",
      "type": "function"
    },
    {
      "constant": true,
      "inputs": [],
      "name": "totalContributedAmount",
      "outputs": [
        {
          "name": "",
          "type": "uint256"
        }
      ],
      "payable": false,
      "stateMutability": "view",
      "type": "function"
    },
    {
      "constant": true,
      "inputs": [],
      "name": "minContributionAmount",
      "outputs": [
        {
          "name": "",
          "type": "uint256"
        }
      ],
      "payable": false,
      "stateMutability": "view",
      "type": "function"
    },
    {
      "constant": true,
      "inputs": [],
      "name": "startBlock",
      "outputs": [
        {
          "name": "",
          "type": "uint256"
        }
      ],
      "payable": false,
      "stateMutability": "view",
      "type": "function"
    },
    {
      "constant": true,
      "inputs": [],
      "name": "owner",
      "outputs": [
        {
          "name": "",
          "type": "address"
        }
      ],
      "payable": false,
      "stateMutability": "view",
      "type": "function"
    },
    {
      "constant": true,
      "inputs": [],
      "name": "maxTotalAmount",
      "outputs": [
        {
          "name": "",
          "type": "uint256"
        }
      ],
      "payable": false,
      "stateMutability": "view",
      "type": "function"
    },
    {
      "constant": true,
      "inputs": [
        {
          "name": "",
          "type": "address"
        }
      ],
      "name": "whitelist",
      "outputs": [
        {
          "name": "",
          "type": "bool"
        }
      ],
      "payable": false,
      "stateMutability": "view",
      "type": "function"
    },
    {
      "constant": true,
      "inputs": [
        {
          "name": "",
          "type": "address"
        }
      ],
      "name": "refunds",
      "outputs": [
        {
          "name": "",
          "type": "uint256"
        }
      ],
      "payable": false,
      "stateMutability": "view",
      "type": "function"
    },
    {
      "constant": true,
      "inputs": [],
      "name": "authority",
      "outputs": [
        {
          "name": "",
          "type": "address"
        }
      ],
      "payable": false,
      "stateMutability": "view",
      "type": "function"
    },
    {
      "constant": true,
      "inputs": [],
      "name": "totalRefundedAmount",
      "outputs": [
        {
          "name": "",
          "type": "uint256"
        }
      ],
      "payable": false,
      "stateMutability": "view",
      "type": "function"
    },
    {
      "constant": true,
      "inputs": [],
      "name": "whitelistRequired",
      "outputs": [
        {
          "name": "",
          "type": "bool"
        }
      ],
      "payable": false,
      "stateMutability": "view",
      "type": "function"
    },
    {
      "inputs": [
        {
          "name": "beneficiary_",
          "type": "address"
        }
      ],
      "payable": false,
      "stateMutability": "nonpayable",
      "type": "constructor"
    },
    {
      "payable": true,
      "stateMutability": "payable",
      "type": "fallback"
    },
    {
      "anonymous": false,
      "inputs": [
        {
          "indexed": false,
          "name": "contributor",
          "type": "address"
        },
        {
          "indexed": false,
          "name": "amount",
          "type": "uint256"
        }
      ],
      "name": "LogContribute",
      "type": "event"
    },
    {
      "anonymous": false,
      "inputs": [
        {
          "indexed": false,
          "name": "contributor",
          "type": "address"
        },
        {
          "indexed": false,
          "name": "amount",
          "type": "uint256"
        }
      ],
      "name": "LogRefund",
      "type": "event"
    },
    {
      "anonymous": false,
      "inputs": [
        {
          "indexed": false,
          "name": "amount",
          "type": "uint256"
        }
      ],
      "name": "LogCollectAmount",
      "type": "event"
    },
    {
      "anonymous": false,
      "inputs": [
        {
          "indexed": true,
          "name": "authority",
          "type": "address"
        }
      ],
      "name": "LogSetAuthority",
      "type": "event"
    },
    {
      "anonymous": false,
      "inputs": [
        {
          "indexed": true,
          "name": "owner",
          "type": "address"
        }
      ],
      "name": "LogSetOwner",
      "type": "event"
    },
    {
      "constant": false,
      "inputs": [
        {
          "name": "contributor",
          "type": "address"
        }
      ],
      "name": "refund",
      "outputs": [],
      "payable": false,
      "stateMutability": "nonpayable",
      "type": "function"
    },
    {
      "constant": false,
      "inputs": [
        {
          "name": "minAmount",
          "type": "uint256"
        }
      ],
      "name": "setMinContributionAmount",
      "outputs": [],
      "payable": false,
      "stateMutability": "nonpayable",
      "type": "function"
    },
    {
      "constant": false,
      "inputs": [
        {
          "name": "maxAmount",
          "type": "uint256"
        }
      ],
      "name": "setMaxTotalAmount",
      "outputs": [],
      "payable": false,
      "stateMutability": "nonpayable",
      "type": "function"
    },
    {
      "constant": false,
      "inputs": [
        {
          "name": "startBlock_",
          "type": "uint256"
        },
        {
          "name": "endBlock_",
          "type": "uint256"
        }
      ],
      "name": "initSale",
      "outputs": [],
      "payable": false,
      "stateMutability": "nonpayable",
      "type": "function"
    },
    {
      "constant": false,
      "inputs": [
        {
          "name": "amount",
          "type": "uint256"
        }
      ],
      "name": "collectAmount",
      "outputs": [],
      "payable": false,
      "stateMutability": "nonpayable",
      "type": "function"
    },
    {
      "constant": false,
      "inputs": [
        {
          "name": "contributors",
          "type": "address[]"
        }
      ],
      "name": "addToWhitelist",
      "outputs": [],
      "payable": false,
      "stateMutability": "nonpayable",
      "type": "function"
    },
    {
      "constant": false,
      "inputs": [
        {
          "name": "contributors",
          "type": "address[]"
        }
      ],
      "name": "removeFromWhitelist",
      "outputs": [],
      "payable": false,
      "stateMutability": "nonpayable",
      "type": "function"
    },
    {
      "constant": false,
      "inputs": [
        {
          "name": "setting",
          "type": "bool"
        }
      ],
      "name": "setWhitelistRequired",
      "outputs": [],
      "payable": false,
      "stateMutability": "nonpayable",
      "type": "function"
    },
    {
      "constant": false,
      "inputs": [
        {
          "name": "owner_",
          "type": "address"
        }
      ],
      "name": "setOwner",
      "outputs": [],
      "payable": false,
      "stateMutability": "nonpayable",
      "type": "function"
    },
    {
      "constant": false,
      "inputs": [
        {
          "name": "authority_",
          "type": "address"
        }
      ],
      "name": "setAuthority",
      "outputs": [],
      "payable": false,
      "stateMutability": "nonpayable",
      "type": "function"
    },
    {
      "constant": false,
      "inputs": [
        {
          "name": "token_",
          "type": "address"
        }
      ],
      "name": "recoverTokens",
      "outputs": [],
      "payable": false,
      "stateMutability": "nonpayable",
      "type": "function"
    }
  ],
  "bytecode": "0x6060604052674563918244f4000060025568e91a7cd19fa3b00000600355341561002857600080fd5b60405160208061156e8339810160405280805190602001909190505033600160006101000a81548173ffffffffffffffffffffffffffffffffffffffff021916908373ffffffffffffffffffffffffffffffffffffffff1602179055503373ffffffffffffffffffffffffffffffffffffffff167fce241d7ca1f669fee44b6fc00b8eba2df3bb514eed0f6f668f8f89096e81ed9460405160405180910390a280600460006101000a81548173ffffffffffffffffffffffffffffffffffffffff021916908373ffffffffffffffffffffffffffffffffffffffff16021790555050611455806101196000396000f30060606040526004361061013e576000357c0100000000000000000000000000000000000000000000000000000000900463ffffffff168063083c63231461014857806313af40351461017157806316114acd146101aa57806338af3eed146101e357806342e94c901461023857806344c4dc311461028557806345d5149f146102ae57806348cd4cb1146102d7578063548db1741461030057806362c13ff31461035a5780637a9e5e4b146103865780637f649783146103bf5780638da5cb5b146104195780638e1018671461046e5780639b19251a146104975780639b36c3bc146104e8578063b5c12f4d1461050b578063bc3da53514610530578063bf7e214f1461057d578063c0b75b7d146105d2578063cd1e0355146105f5578063d1b940521461061e578063fa89401a14610641578063fb08f3a11461067a575b6101466106a7565b005b341561015357600080fd5b61015b61082e565b6040518082815260200191505060405180910390f35b341561017c57600080fd5b6101a8600480803573ffffffffffffffffffffffffffffffffffffffff16906020019091905050610834565b005b34156101b557600080fd5b6101e1600480803573ffffffffffffffffffffffffffffffffffffffff16906020019091905050610872565b005b34156101ee57600080fd5b6101f6610a5a565b604051808273ffffffffffffffffffffffffffffffffffffffff1673ffffffffffffffffffffffffffffffffffffffff16815260200191505060405180910390f35b341561024357600080fd5b61026f600480803573ffffffffffffffffffffffffffffffffffffffff16906020019091905050610a80565b6040518082815260200191505060405180910390f35b341561029057600080fd5b610298610a98565b6040518082815260200191505060405180910390f35b34156102b957600080fd5b6102c1610a9e565b6040518082815260200191505060405180910390f35b34156102e257600080fd5b6102ea610aa4565b6040518082815260200191505060405180910390f35b341561030b57600080fd5b610358600480803590602001908201803590602001908080602002602001604051908101604052809392919081815260200183836020028082843782019150505050505091905050610aaa565b005b341561036557600080fd5b6103846004808035906020019091908035906020019091905050610b84565b005b341561039157600080fd5b6103bd600480803573ffffffffffffffffffffffffffffffffffffffff16906020019091905050610bec565b005b34156103ca57600080fd5b610417600480803590602001908201803590602001908080602002602001604051908101604052809392919081815260200183836020028082843782019150505050505091905050610c2a565b005b341561042457600080fd5b61042c610d04565b604051808273ffffffffffffffffffffffffffffffffffffffff1673ffffffffffffffffffffffffffffffffffffffff16815260200191505060405180910390f35b341561047957600080fd5b610481610d2a565b6040518082815260200191505060405180910390f35b34156104a257600080fd5b6104ce600480803573ffffffffffffffffffffffffffffffffffffffff16906020019091905050610d30565b604051808215151515815260200191505060405180910390f35b34156104f357600080fd5b6105096004808035906020019091905050610d50565b005b341561051657600080fd5b61052e60048080351515906020019091905050610da2565b005b341561053b57600080fd5b610567600480803573ffffffffffffffffffffffffffffffffffffffff16906020019091905050610df8565b6040518082815260200191505060405180910390f35b341561058857600080fd5b610590610e10565b604051808273ffffffffffffffffffffffffffffffffffffffff1673ffffffffffffffffffffffffffffffffffffffff16815260200191505060405180910390f35b34156105dd57600080fd5b6105f36004808035906020019091905050610e35565b005b341561060057600080fd5b610608610e87565b6040518082815260200191505060405180910390f35b341561062957600080fd5b61063f6004808035906020019091905050610e8d565b005b341561064c57600080fd5b610678600480803573ffffffffffffffffffffffffffffffffffffffff16906020019091905050610f88565b005b341561068557600080fd5b61068d61119b565b604051808215151515815260200191505060405180910390f35b60055443101515156106b857600080fd5b60065443111515156106c957600080fd5b600b60009054906101000a900460ff161561073757600c60003373ffffffffffffffffffffffffffffffffffffffff1673ffffffffffffffffffffffffffffffffffffffff16815260200190815260200160002060009054906101000a900460ff16151561073657600080fd5b5b600254341015151561074857600080fd5b610754600754346111ae565b6003541015151561076457600080fd5b34600960003373ffffffffffffffffffffffffffffffffffffffff1673ffffffffffffffffffffffffffffffffffffffff16815260200190815260200160002060008282540192505081905550346007600082825401925050819055507f0a12a7a0ed6577d8f3ba4fda918630aa274327f25b7745da8cbf04a7429b66663334604051808373ffffffffffffffffffffffffffffffffffffffff1673ffffffffffffffffffffffffffffffffffffffff1681526020018281526020019250505060405180910390a1565b60065481565b610862336000357fffffffff00000000000000000000000000000000000000000000000000000000166111ca565b151561086d57600080fd5b600080fd5b60006108a2336000357fffffffff00000000000000000000000000000000000000000000000000000000166111ca565b15156108ad57600080fd5b8190508073ffffffffffffffffffffffffffffffffffffffff1663a9059cbb600460009054906101000a900473ffffffffffffffffffffffffffffffffffffffff168373ffffffffffffffffffffffffffffffffffffffff166370a08231306000604051602001526040518263ffffffff167c0100000000000000000000000000000000000000000000000000000000028152600401808273ffffffffffffffffffffffffffffffffffffffff1673ffffffffffffffffffffffffffffffffffffffff168152602001915050602060405180830381600087803b151561099257600080fd5b6102c65a03f115156109a357600080fd5b505050604051805190506000604051602001526040518363ffffffff167c0100000000000000000000000000000000000000000000000000000000028152600401808373ffffffffffffffffffffffffffffffffffffffff1673ffffffffffffffffffffffffffffffffffffffff16815260200182815260200192505050602060405180830381600087803b1515610a3a57600080fd5b6102c65a03f11515610a4b57600080fd5b50505060405180519050505050565b600460009054906101000a900473ffffffffffffffffffffffffffffffffffffffff1681565b60096020528060005260406000206000915090505481565b60075481565b60025481565b60055481565b6000610ada336000357fffffffff00000000000000000000000000000000000000000000000000000000166111ca565b1515610ae557600080fd5b6000825114151515610af657600080fd5b600090505b8151811015610b80576000600c60008484815181101515610b1857fe5b9060200190602002015173ffffffffffffffffffffffffffffffffffffffff1673ffffffffffffffffffffffffffffffffffffffff16815260200190815260200160002060006101000a81548160ff0219169083151502179055508080600101915050610afb565b5050565b610bb2336000357fffffffff00000000000000000000000000000000000000000000000000000000166111ca565b1515610bbd57600080fd5b600082111515610bcc57600080fd5b8181111515610bda57600080fd5b81600581905550806006819055505050565b610c1a336000357fffffffff00000000000000000000000000000000000000000000000000000000166111ca565b1515610c2557600080fd5b600080fd5b6000610c5a336000357fffffffff00000000000000000000000000000000000000000000000000000000166111ca565b1515610c6557600080fd5b6000825114151515610c7657600080fd5b600090505b8151811015610d00576001600c60008484815181101515610c9857fe5b9060200190602002015173ffffffffffffffffffffffffffffffffffffffff1673ffffffffffffffffffffffffffffffffffffffff16815260200190815260200160002060006101000a81548160ff0219169083151502179055508080600101915050610c7b565b5050565b600160009054906101000a900473ffffffffffffffffffffffffffffffffffffffff1681565b60035481565b600c6020528060005260406000206000915054906101000a900460ff1681565b610d7e336000357fffffffff00000000000000000000000000000000000000000000000000000000166111ca565b1515610d8957600080fd5b600081111515610d9857600080fd5b8060038190555050565b610dd0336000357fffffffff00000000000000000000000000000000000000000000000000000000166111ca565b1515610ddb57600080fd5b80600b60006101000a81548160ff02191690831515021790555050565b600a6020528060005260406000206000915090505481565b6000809054906101000a900473ffffffffffffffffffffffffffffffffffffffff1681565b610e63336000357fffffffff00000000000000000000000000000000000000000000000000000000166111ca565b1515610e6e57600080fd5b600081111515610e7d57600080fd5b8060028190555050565b60085481565b610ebb336000357fffffffff00000000000000000000000000000000000000000000000000000000166111ca565b1515610ec657600080fd5b803073ffffffffffffffffffffffffffffffffffffffff163110151515610eec57600080fd5b600460009054906101000a900473ffffffffffffffffffffffffffffffffffffffff1673ffffffffffffffffffffffffffffffffffffffff166108fc829081150290604051600060405180830381858888f193505050501515610f4e57600080fd5b7f8da66e67ab29db0d660e9e0337cf786d9fcb5d628c894fd6b473bfff66989887816040518082815260200191505060405180910390a150565b6000610fb8336000357fffffffff00000000000000000000000000000000000000000000000000000000166111ca565b1515610fc357600080fd5b600960008373ffffffffffffffffffffffffffffffffffffffff1673ffffffffffffffffffffffffffffffffffffffff16815260200190815260200160002054905060008111151561101457600080fd5b3073ffffffffffffffffffffffffffffffffffffffff1631811115151561103a57600080fd5b6000600960008473ffffffffffffffffffffffffffffffffffffffff1673ffffffffffffffffffffffffffffffffffffffff1681526020019081526020016000208190555080600a60008473ffffffffffffffffffffffffffffffffffffffff1673ffffffffffffffffffffffffffffffffffffffff1681526020019081526020016000206000828254019250508190555080600860008282540192505081905550806007600082825403925050819055508173ffffffffffffffffffffffffffffffffffffffff166108fc829081150290604051600060405180830381858888f19350505050151561112c57600080fd5b7fb6c0eca8138e097d71e2dd31e19a1266487f0553f170b7260ffe68bcbe9ff8a78282604051808373ffffffffffffffffffffffffffffffffffffffff1673ffffffffffffffffffffffffffffffffffffffff1681526020018281526020019250505060405180910390a15050565b600b60009054906101000a900460ff1681565b600082828401915081101515156111c457600080fd5b92915050565b60003073ffffffffffffffffffffffffffffffffffffffff168373ffffffffffffffffffffffffffffffffffffffff1614156112095760019050611423565b600160009054906101000a900473ffffffffffffffffffffffffffffffffffffffff1673ffffffffffffffffffffffffffffffffffffffff168373ffffffffffffffffffffffffffffffffffffffff1614156112685760019050611423565b600073ffffffffffffffffffffffffffffffffffffffff166000809054906101000a900473ffffffffffffffffffffffffffffffffffffffff1673ffffffffffffffffffffffffffffffffffffffff1614156112c75760009050611423565b6000809054906101000a900473ffffffffffffffffffffffffffffffffffffffff1673ffffffffffffffffffffffffffffffffffffffff1663b70096138430856000604051602001526040518463ffffffff167c0100000000000000000000000000000000000000000000000000000000028152600401808473ffffffffffffffffffffffffffffffffffffffff1673ffffffffffffffffffffffffffffffffffffffff1681526020018373ffffffffffffffffffffffffffffffffffffffff1673ffffffffffffffffffffffffffffffffffffffff168152602001827bffffffffffffffffffffffffffffffffffffffffffffffffffffffff19167bffffffffffffffffffffffffffffffffffffffffffffffffffffffff191681526020019350505050602060405180830381600087803b151561140557600080fd5b6102c65a03f1151561141657600080fd5b5050506040518051905090505b929150505600a165627a7a723058209f1c4d02c5775d909a236cbc5dc5228f40f952580cd9293262c0074eceb13d750029",
  "source": "// The MIT License (MIT)\n// Copyright (c) 2017 Viewly (https://view.ly)\n\npragma solidity ^0.4.18;\n\nimport \"./dappsys/math.sol\";\nimport \"./dappsys/auth.sol\";\nimport \"./dappsys/erc20.sol\";\n\n/* Viewly main token sale contract, where contributors send ethers in order to\n * later receive VIEW tokens (outside of this contract).\n */\ncontract ViewlyMainSale is DSAuth, DSMath {\n\n    // STATE\n\n    uint public minContributionAmount = 5 ether; // initial min contribution amount\n    uint public maxTotalAmount = 4300 ether;     // initial min contribution amount\n    address public beneficiary;                  // address to collect contributed amount to\n    uint public startBlock;                      // start block of sale\n    uint public endBlock;                        // end block of sale\n\n    uint public totalContributedAmount;          // stores all contributions\n    uint public totalRefundedAmount;             // stores all refunds\n\n    mapping(address => uint256) public contributions;\n    mapping(address => uint256) public refunds;\n\n    bool public whitelistRequired;\n    mapping(address => bool) public whitelist;\n\n\n    // EVENTS\n\n    event LogContribute(address contributor, uint amount);\n    event LogRefund(address contributor, uint amount);\n    event LogCollectAmount(uint amount);\n\n\n    // MODIFIERS\n\n    modifier saleOpen() {\n        require(block.number >= startBlock);\n        require(block.number <= endBlock);\n        _;\n    }\n\n    modifier requireWhitelist() {\n        if (whitelistRequired) require(whitelist[msg.sender]);\n        _;\n    }\n\n\n    // PUBLIC\n\n    function ViewlyMainSale(address beneficiary_) public {\n        beneficiary = beneficiary_;\n    }\n\n    function() public payable {\n        contribute();\n    }\n\n\n    // AUTH-REQUIRED\n\n    function refund(address contributor) public auth {\n        uint amount = contributions[contributor];\n        require(amount > 0);\n        require(amount <= this.balance);\n\n        contributions[contributor] = 0;\n        refunds[contributor] += amount;\n        totalRefundedAmount += amount;\n        totalContributedAmount -= amount;\n        contributor.transfer(amount);\n        LogRefund(contributor, amount);\n    }\n\n    function setMinContributionAmount(uint minAmount) public auth {\n        require(minAmount > 0);\n\n        minContributionAmount = minAmount;\n    }\n\n    function setMaxTotalAmount(uint maxAmount) public auth {\n        require(maxAmount > 0);\n\n        maxTotalAmount = maxAmount;\n    }\n\n    function initSale(uint startBlock_, uint endBlock_) public auth {\n        require(startBlock_ > 0);\n        require(endBlock_ > startBlock_);\n\n        startBlock = startBlock_;\n        endBlock   = endBlock_;\n    }\n\n    function collectAmount(uint amount) public auth {\n        require(this.balance >= amount);\n\n        beneficiary.transfer(amount);\n        LogCollectAmount(amount);\n    }\n\n    function addToWhitelist(address[] contributors) public auth {\n        require(contributors.length != 0);\n\n        for (uint i = 0; i < contributors.length; i++) {\n          whitelist[contributors[i]] = true;\n        }\n    }\n\n    function removeFromWhitelist(address[] contributors) public auth {\n        require(contributors.length != 0);\n\n        for (uint i = 0; i < contributors.length; i++) {\n          whitelist[contributors[i]] = false;\n        }\n    }\n\n    function setWhitelistRequired(bool setting) public auth {\n        whitelistRequired = setting;\n    }\n\n    function setOwner(address owner_) public auth {\n        revert();\n    }\n\n    function setAuthority(DSAuthority authority_) public auth {\n        revert();\n    }\n\n    function recoverTokens(address token_) public auth {\n        ERC20 token = ERC20(token_);\n        token.transfer(beneficiary, token.balanceOf(this));\n    }\n\n\n    // PRIVATE\n\n    function contribute() private saleOpen requireWhitelist {\n        require(msg.value >= minContributionAmount);\n        require(maxTotalAmount >= add(totalContributedAmount, msg.value));\n\n        contributions[msg.sender] += msg.value;\n        totalContributedAmount += msg.value;\n        LogContribute(msg.sender, msg.value);\n    }\n}\n",
  "sourcePath": "/Users/uros/Devel/viewly/main-tokensale-contracts/contracts/viewly_main_sale.sol",
  "compiler": {
    "name": "solc",
    "version": "0.4.19+commit.c4cbbb05.Emscripten.clang"
  },
  "schemaVersion": "1.0.1",
  "updatedAt": "2018-02-20T13:31:43.948Z"
}